{
  "contractName": "ERC721CreatorImplementation",
  "abi": [
    {
      "anonymous": false,
      "inputs": [
        {
          "indexed": true,
          "internalType": "address",
          "name": "account",
          "type": "address"
        },
        {
          "indexed": true,
          "internalType": "address",
          "name": "sender",
          "type": "address"
        }
      ],
      "name": "AdminApproved",
      "type": "event"
    },
    {
      "anonymous": false,
      "inputs": [
        {
          "indexed": true,
          "internalType": "address",
          "name": "account",
          "type": "address"
        },
        {
          "indexed": true,
          "internalType": "address",
          "name": "sender",
          "type": "address"
        }
      ],
      "name": "AdminRevoked",
      "type": "event"
    },
    {
      "anonymous": false,
      "inputs": [
        {
          "indexed": true,
          "internalType": "address",
          "name": "owner",
          "type": "address"
        },
        {
          "indexed": true,
          "internalType": "address",
          "name": "approved",
          "type": "address"
        },
        {
          "indexed": true,
          "internalType": "uint256",
          "name": "tokenId",
          "type": "uint256"
        }
      ],
      "name": "Approval",
      "type": "event"
    },
    {
      "anonymous": false,
      "inputs": [
        {
          "indexed": true,
          "internalType": "address",
          "name": "owner",
          "type": "address"
        },
        {
          "indexed": true,
          "internalType": "address",
          "name": "operator",
          "type": "address"
        },
        {
          "indexed": false,
          "internalType": "bool",
          "name": "approved",
          "type": "bool"
        }
      ],
      "name": "ApprovalForAll",
      "type": "event"
    },
    {
      "anonymous": false,
      "inputs": [
        {
          "indexed": false,
          "internalType": "address payable[]",
          "name": "receivers",
          "type": "address[]"
        },
        {
          "indexed": false,
          "internalType": "uint256[]",
          "name": "basisPoints",
          "type": "uint256[]"
        }
      ],
      "name": "DefaultRoyaltiesUpdated",
      "type": "event"
    },
    {
      "anonymous": false,
      "inputs": [
        {
          "indexed": true,
          "internalType": "address",
          "name": "extension",
          "type": "address"
        },
        {
          "indexed": false,
          "internalType": "bool",
          "name": "enabled",
          "type": "bool"
        }
      ],
      "name": "ExtensionApproveTransferUpdated",
      "type": "event"
    },
    {
      "anonymous": false,
      "inputs": [
        {
          "indexed": true,
          "internalType": "address",
          "name": "extension",
          "type": "address"
        },
        {
          "indexed": true,
          "internalType": "address",
          "name": "sender",
          "type": "address"
        }
      ],
      "name": "ExtensionBlacklisted",
      "type": "event"
    },
    {
      "anonymous": false,
      "inputs": [
        {
          "indexed": true,
          "internalType": "address",
          "name": "extension",
          "type": "address"
        },
        {
          "indexed": true,
          "internalType": "address",
          "name": "sender",
          "type": "address"
        }
      ],
      "name": "ExtensionRegistered",
      "type": "event"
    },
    {
      "anonymous": false,
      "inputs": [
        {
          "indexed": true,
          "internalType": "address",
          "name": "extension",
          "type": "address"
        },
        {
          "indexed": false,
          "internalType": "address payable[]",
          "name": "receivers",
          "type": "address[]"
        },
        {
          "indexed": false,
          "internalType": "uint256[]",
          "name": "basisPoints",
          "type": "uint256[]"
        }
      ],
      "name": "ExtensionRoyaltiesUpdated",
      "type": "event"
    },
    {
      "anonymous": false,
      "inputs": [
        {
          "indexed": true,
          "internalType": "address",
          "name": "extension",
          "type": "address"
        },
        {
          "indexed": true,
          "internalType": "address",
          "name": "sender",
          "type": "address"
        }
      ],
      "name": "ExtensionUnregistered",
      "type": "event"
    },
    {
      "anonymous": false,
      "inputs": [
        {
          "indexed": false,
          "internalType": "uint8",
          "name": "version",
          "type": "uint8"
        }
      ],
      "name": "Initialized",
      "type": "event"
    },
    {
      "anonymous": false,
      "inputs": [
        {
          "indexed": true,
          "internalType": "address",
          "name": "extension",
          "type": "address"
        },
        {
          "indexed": true,
          "internalType": "address",
          "name": "permissions",
          "type": "address"
        },
        {
          "indexed": true,
          "internalType": "address",
          "name": "sender",
          "type": "address"
        }
      ],
      "name": "MintPermissionsUpdated",
      "type": "event"
    },
    {
      "anonymous": false,
      "inputs": [
        {
          "indexed": true,
          "internalType": "address",
          "name": "previousOwner",
          "type": "address"
        },
        {
          "indexed": true,
          "internalType": "address",
          "name": "newOwner",
          "type": "address"
        }
      ],
      "name": "OwnershipTransferred",
      "type": "event"
    },
    {
      "anonymous": false,
      "inputs": [
        {
          "indexed": true,
          "internalType": "uint256",
          "name": "tokenId",
          "type": "uint256"
        },
        {
          "indexed": false,
          "internalType": "address payable[]",
          "name": "receivers",
          "type": "address[]"
        },
        {
          "indexed": false,
          "internalType": "uint256[]",
          "name": "basisPoints",
          "type": "uint256[]"
        }
      ],
      "name": "RoyaltiesUpdated",
      "type": "event"
    },
    {
      "anonymous": false,
      "inputs": [
        {
          "indexed": true,
          "internalType": "address",
          "name": "from",
          "type": "address"
        },
        {
          "indexed": true,
          "internalType": "address",
          "name": "to",
          "type": "address"
        },
        {
          "indexed": true,
          "internalType": "uint256",
          "name": "tokenId",
          "type": "uint256"
        }
      ],
      "name": "Transfer",
      "type": "event"
    },
    {
      "inputs": [
        {
          "internalType": "address",
          "name": "to",
          "type": "address"
        },
        {
          "internalType": "uint256",
          "name": "tokenId",
          "type": "uint256"
        }
      ],
      "name": "approve",
      "outputs": [],
      "stateMutability": "nonpayable",
      "type": "function"
    },
    {
      "inputs": [
        {
          "internalType": "address",
          "name": "admin",
          "type": "address"
        }
      ],
      "name": "approveAdmin",
      "outputs": [],
      "stateMutability": "nonpayable",
      "type": "function"
    },
    {
      "inputs": [
        {
          "internalType": "address",
          "name": "owner",
          "type": "address"
        }
      ],
      "name": "balanceOf",
      "outputs": [
        {
          "internalType": "uint256",
          "name": "",
          "type": "uint256"
        }
      ],
      "stateMutability": "view",
      "type": "function",
      "constant": true
    },
    {
      "inputs": [],
      "name": "getAdmins",
      "outputs": [
        {
          "internalType": "address[]",
          "name": "admins",
          "type": "address[]"
        }
      ],
      "stateMutability": "view",
      "type": "function",
      "constant": true
    },
    {
      "inputs": [
        {
          "internalType": "uint256",
          "name": "tokenId",
          "type": "uint256"
        }
      ],
      "name": "getApproved",
      "outputs": [
        {
          "internalType": "address",
          "name": "",
          "type": "address"
        }
      ],
      "stateMutability": "view",
      "type": "function",
      "constant": true
    },
    {
      "inputs": [],
      "name": "getExtensions",
      "outputs": [
        {
          "internalType": "address[]",
          "name": "extensions",
          "type": "address[]"
        }
      ],
      "stateMutability": "view",
      "type": "function",
      "constant": true
    },
    {
      "inputs": [
        {
          "internalType": "address",
          "name": "admin",
          "type": "address"
        }
      ],
      "name": "isAdmin",
      "outputs": [
        {
          "internalType": "bool",
          "name": "",
          "type": "bool"
        }
      ],
      "stateMutability": "view",
      "type": "function",
      "constant": true
    },
    {
      "inputs": [
        {
          "internalType": "address",
          "name": "owner",
          "type": "address"
        },
        {
          "internalType": "address",
          "name": "operator",
          "type": "address"
        }
      ],
      "name": "isApprovedForAll",
      "outputs": [
        {
          "internalType": "bool",
          "name": "",
          "type": "bool"
        }
      ],
      "stateMutability": "view",
      "type": "function",
      "constant": true
    },
    {
      "inputs": [],
      "name": "name",
      "outputs": [
        {
          "internalType": "string",
          "name": "",
          "type": "string"
        }
      ],
      "stateMutability": "view",
      "type": "function",
      "constant": true
    },
    {
      "inputs": [],
      "name": "owner",
      "outputs": [
        {
          "internalType": "address",
          "name": "",
          "type": "address"
        }
      ],
      "stateMutability": "view",
      "type": "function",
      "constant": true
    },
    {
      "inputs": [
        {
          "internalType": "uint256",
          "name": "tokenId",
          "type": "uint256"
        }
      ],
      "name": "ownerOf",
      "outputs": [
        {
          "internalType": "address",
          "name": "",
          "type": "address"
        }
      ],
      "stateMutability": "view",
      "type": "function",
      "constant": true
    },
    {
      "inputs": [],
      "name": "renounceOwnership",
      "outputs": [],
      "stateMutability": "nonpayable",
      "type": "function"
    },
    {
      "inputs": [
        {
          "internalType": "address",
          "name": "admin",
          "type": "address"
        }
      ],
      "name": "revokeAdmin",
      "outputs": [],
      "stateMutability": "nonpayable",
      "type": "function"
    },
    {
      "inputs": [
        {
          "internalType": "address",
          "name": "from",
          "type": "address"
        },
        {
          "internalType": "address",
          "name": "to",
          "type": "address"
        },
        {
          "internalType": "uint256",
          "name": "tokenId",
          "type": "uint256"
        }
      ],
      "name": "safeTransferFrom",
      "outputs": [],
      "stateMutability": "nonpayable",
      "type": "function"
    },
    {
      "inputs": [
        {
          "internalType": "address",
          "name": "from",
          "type": "address"
        },
        {
          "internalType": "address",
          "name": "to",
          "type": "address"
        },
        {
          "internalType": "uint256",
          "name": "tokenId",
          "type": "uint256"
        },
        {
          "internalType": "bytes",
          "name": "_data",
          "type": "bytes"
        }
      ],
      "name": "safeTransferFrom",
      "outputs": [],
      "stateMutability": "nonpayable",
      "type": "function"
    },
    {
      "inputs": [
        {
          "internalType": "address",
          "name": "operator",
          "type": "address"
        },
        {
          "internalType": "bool",
          "name": "approved",
          "type": "bool"
        }
      ],
      "name": "setApprovalForAll",
      "outputs": [],
      "stateMutability": "nonpayable",
      "type": "function"
    },
    {
      "inputs": [
        {
          "internalType": "bool",
          "name": "enabled",
          "type": "bool"
        }
      ],
      "name": "setApproveTransferExtension",
      "outputs": [],
      "stateMutability": "nonpayable",
      "type": "function"
    },
    {
      "inputs": [],
      "name": "symbol",
      "outputs": [
        {
          "internalType": "string",
          "name": "",
          "type": "string"
        }
      ],
      "stateMutability": "view",
      "type": "function",
      "constant": true
    },
    {
      "inputs": [
        {
          "internalType": "address",
          "name": "from",
          "type": "address"
        },
        {
          "internalType": "address",
          "name": "to",
          "type": "address"
        },
        {
          "internalType": "uint256",
          "name": "tokenId",
          "type": "uint256"
        }
      ],
      "name": "transferFrom",
      "outputs": [],
      "stateMutability": "nonpayable",
      "type": "function"
    },
    {
      "inputs": [
        {
          "internalType": "address",
          "name": "newOwner",
          "type": "address"
        }
      ],
      "name": "transferOwnership",
      "outputs": [],
      "stateMutability": "nonpayable",
      "type": "function"
    },
    {
      "inputs": [
        {
          "internalType": "string",
          "name": "_name",
          "type": "string"
        },
        {
          "internalType": "string",
          "name": "_symbol",
          "type": "string"
        }
      ],
      "name": "initialize",
      "outputs": [],
      "stateMutability": "nonpayable",
      "type": "function"
    },
    {
      "inputs": [
        {
          "internalType": "bytes4",
          "name": "interfaceId",
          "type": "bytes4"
        }
      ],
      "name": "supportsInterface",
      "outputs": [
        {
          "internalType": "bool",
          "name": "",
          "type": "bool"
        }
      ],
      "stateMutability": "view",
      "type": "function",
      "constant": true
    },
    {
      "inputs": [
        {
          "internalType": "address",
          "name": "extension",
          "type": "address"
        },
        {
          "internalType": "string",
          "name": "baseURI",
          "type": "string"
        }
      ],
      "name": "registerExtension",
      "outputs": [],
      "stateMutability": "nonpayable",
      "type": "function"
    },
    {
      "inputs": [
        {
          "internalType": "address",
          "name": "extension",
          "type": "address"
        },
        {
          "internalType": "string",
          "name": "baseURI",
          "type": "string"
        },
        {
          "internalType": "bool",
          "name": "baseURIIdentical",
          "type": "bool"
        }
      ],
      "name": "registerExtension",
      "outputs": [],
      "stateMutability": "nonpayable",
      "type": "function"
    },
    {
      "inputs": [
        {
          "internalType": "address",
          "name": "extension",
          "type": "address"
        }
      ],
      "name": "unregisterExtension",
      "outputs": [],
      "stateMutability": "nonpayable",
      "type": "function"
    },
    {
      "inputs": [
        {
          "internalType": "address",
          "name": "extension",
          "type": "address"
        }
      ],
      "name": "blacklistExtension",
      "outputs": [],
      "stateMutability": "nonpayable",
      "type": "function"
    },
    {
      "inputs": [
        {
          "internalType": "string",
          "name": "uri",
          "type": "string"
        }
      ],
      "name": "setBaseTokenURIExtension",
      "outputs": [],
      "stateMutability": "nonpayable",
      "type": "function"
    },
    {
      "inputs": [
        {
          "internalType": "string",
          "name": "uri",
          "type": "string"
        },
        {
          "internalType": "bool",
          "name": "identical",
          "type": "bool"
        }
      ],
      "name": "setBaseTokenURIExtension",
      "outputs": [],
      "stateMutability": "nonpayable",
      "type": "function"
    },
    {
      "inputs": [
        {
          "internalType": "string",
          "name": "prefix",
          "type": "string"
        }
      ],
      "name": "setTokenURIPrefixExtension",
      "outputs": [],
      "stateMutability": "nonpayable",
      "type": "function"
    },
    {
      "inputs": [
        {
          "internalType": "uint256[]",
          "name": "tokenIds",
          "type": "uint256[]"
        },
        {
          "internalType": "string[]",
          "name": "uris",
          "type": "string[]"
        }
      ],
      "name": "setTokenURIExtension",
      "outputs": [],
      "stateMutability": "nonpayable",
      "type": "function"
    },
    {
      "inputs": [
        {
          "internalType": "uint256",
          "name": "tokenId",
          "type": "uint256"
        },
        {
          "internalType": "string",
          "name": "uri",
          "type": "string"
        }
      ],
      "name": "setTokenURIExtension",
      "outputs": [],
      "stateMutability": "nonpayable",
      "type": "function"
    },
    {
      "inputs": [
        {
          "internalType": "string",
          "name": "uri",
          "type": "string"
        }
      ],
      "name": "setBaseTokenURI",
      "outputs": [],
      "stateMutability": "nonpayable",
      "type": "function"
    },
    {
      "inputs": [
        {
          "internalType": "string",
          "name": "prefix",
          "type": "string"
        }
      ],
      "name": "setTokenURIPrefix",
      "outputs": [],
      "stateMutability": "nonpayable",
      "type": "function"
    },
    {
      "inputs": [
        {
          "internalType": "uint256",
          "name": "tokenId",
          "type": "uint256"
        },
        {
          "internalType": "string",
          "name": "uri",
          "type": "string"
        }
      ],
      "name": "setTokenURI",
      "outputs": [],
      "stateMutability": "nonpayable",
      "type": "function"
    },
    {
      "inputs": [
        {
          "internalType": "uint256[]",
          "name": "tokenIds",
          "type": "uint256[]"
        },
        {
          "internalType": "string[]",
          "name": "uris",
          "type": "string[]"
        }
      ],
      "name": "setTokenURI",
      "outputs": [],
      "stateMutability": "nonpayable",
      "type": "function"
    },
    {
      "inputs": [
        {
          "internalType": "address",
          "name": "extension",
          "type": "address"
        },
        {
          "internalType": "address",
          "name": "permissions",
          "type": "address"
        }
      ],
      "name": "setMintPermissions",
      "outputs": [],
      "stateMutability": "nonpayable",
      "type": "function"
    },
    {
      "inputs": [
        {
          "internalType": "address",
          "name": "to",
          "type": "address"
        }
      ],
      "name": "mintBase",
      "outputs": [
        {
          "internalType": "uint256",
          "name": "",
          "type": "uint256"
        }
      ],
      "stateMutability": "nonpayable",
      "type": "function"
    },
    {
      "inputs": [
        {
          "internalType": "address",
          "name": "to",
          "type": "address"
        },
        {
          "internalType": "string",
          "name": "uri",
          "type": "string"
        }
      ],
      "name": "mintBase",
      "outputs": [
        {
          "internalType": "uint256",
          "name": "",
          "type": "uint256"
        }
      ],
      "stateMutability": "nonpayable",
      "type": "function"
    },
    {
      "inputs": [
        {
          "internalType": "address",
          "name": "to",
          "type": "address"
        },
        {
          "internalType": "string[]",
          "name": "uris",
          "type": "string[]"
        }
      ],
      "name": "mintBaseBatch",
      "outputs": [
        {
          "internalType": "uint256[]",
          "name": "tokenIds",
          "type": "uint256[]"
        }
      ],
      "stateMutability": "nonpayable",
      "type": "function"
    },
    {
      "inputs": [
        {
          "internalType": "address",
          "name": "to",
          "type": "address"
        },
        {
          "internalType": "uint16",
          "name": "count",
          "type": "uint16"
        }
      ],
      "name": "mintBaseBatch",
      "outputs": [
        {
          "internalType": "uint256[]",
          "name": "tokenIds",
          "type": "uint256[]"
        }
      ],
      "stateMutability": "nonpayable",
      "type": "function"
    },
    {
      "inputs": [
        {
          "internalType": "address",
          "name": "to",
          "type": "address"
        }
      ],
      "name": "mintExtension",
      "outputs": [
        {
          "internalType": "uint256",
          "name": "",
          "type": "uint256"
        }
      ],
      "stateMutability": "nonpayable",
      "type": "function"
    },
    {
      "inputs": [
        {
          "internalType": "address",
          "name": "to",
          "type": "address"
        },
        {
          "internalType": "string",
          "name": "uri",
          "type": "string"
        }
      ],
      "name": "mintExtension",
      "outputs": [
        {
          "internalType": "uint256",
          "name": "",
          "type": "uint256"
        }
      ],
      "stateMutability": "nonpayable",
      "type": "function"
    },
    {
      "inputs": [
        {
          "internalType": "address",
          "name": "to",
          "type": "address"
        },
        {
          "internalType": "string[]",
          "name": "uris",
          "type": "string[]"
        }
      ],
      "name": "mintExtensionBatch",
      "outputs": [
        {
          "internalType": "uint256[]",
          "name": "tokenIds",
          "type": "uint256[]"
        }
      ],
      "stateMutability": "nonpayable",
      "type": "function"
    },
    {
      "inputs": [
        {
          "internalType": "address",
          "name": "to",
          "type": "address"
        },
        {
          "internalType": "uint16",
          "name": "count",
          "type": "uint16"
        }
      ],
      "name": "mintExtensionBatch",
      "outputs": [
        {
          "internalType": "uint256[]",
          "name": "tokenIds",
          "type": "uint256[]"
        }
      ],
      "stateMutability": "nonpayable",
      "type": "function"
    },
    {
      "inputs": [
        {
          "internalType": "uint256",
          "name": "tokenId",
          "type": "uint256"
        }
      ],
      "name": "tokenExtension",
      "outputs": [
        {
          "internalType": "address",
          "name": "",
          "type": "address"
        }
      ],
      "stateMutability": "view",
      "type": "function",
      "constant": true
    },
    {
      "inputs": [
        {
          "internalType": "uint256",
          "name": "tokenId",
          "type": "uint256"
        }
      ],
      "name": "burn",
      "outputs": [],
      "stateMutability": "nonpayable",
      "type": "function"
    },
    {
      "inputs": [
        {
          "internalType": "uint256",
          "name": "tokenId",
          "type": "uint256"
        },
        {
          "internalType": "address payable[]",
          "name": "receivers",
          "type": "address[]"
        },
        {
          "internalType": "uint256[]",
          "name": "basisPoints",
          "type": "uint256[]"
        }
      ],
      "name": "setRoyalties",
      "outputs": [],
      "stateMutability": "nonpayable",
      "type": "function"
    },
    {
      "inputs": [
        {
          "internalType": "address payable[]",
          "name": "receivers",
          "type": "address[]"
        },
        {
          "internalType": "uint256[]",
          "name": "basisPoints",
          "type": "uint256[]"
        }
      ],
      "name": "setRoyalties",
      "outputs": [],
      "stateMutability": "nonpayable",
      "type": "function"
    },
    {
      "inputs": [
        {
          "internalType": "address",
          "name": "extension",
          "type": "address"
        },
        {
          "internalType": "address payable[]",
          "name": "receivers",
          "type": "address[]"
        },
        {
          "internalType": "uint256[]",
          "name": "basisPoints",
          "type": "uint256[]"
        }
      ],
      "name": "setRoyaltiesExtension",
      "outputs": [],
      "stateMutability": "nonpayable",
      "type": "function"
    },
    {
      "inputs": [
        {
          "internalType": "uint256",
          "name": "tokenId",
          "type": "uint256"
        }
      ],
      "name": "getRoyalties",
      "outputs": [
        {
          "internalType": "address payable[]",
          "name": "",
          "type": "address[]"
        },
        {
          "internalType": "uint256[]",
          "name": "",
          "type": "uint256[]"
        }
      ],
      "stateMutability": "view",
      "type": "function",
      "constant": true
    },
    {
      "inputs": [
        {
          "internalType": "uint256",
          "name": "tokenId",
          "type": "uint256"
        }
      ],
      "name": "getFees",
      "outputs": [
        {
          "internalType": "address payable[]",
          "name": "",
          "type": "address[]"
        },
        {
          "internalType": "uint256[]",
          "name": "",
          "type": "uint256[]"
        }
      ],
      "stateMutability": "view",
      "type": "function",
      "constant": true
    },
    {
      "inputs": [
        {
          "internalType": "uint256",
          "name": "tokenId",
          "type": "uint256"
        }
      ],
      "name": "getFeeRecipients",
      "outputs": [
        {
          "internalType": "address payable[]",
          "name": "",
          "type": "address[]"
        }
      ],
      "stateMutability": "view",
      "type": "function",
      "constant": true
    },
    {
      "inputs": [
        {
          "internalType": "uint256",
          "name": "tokenId",
          "type": "uint256"
        }
      ],
      "name": "getFeeBps",
      "outputs": [
        {
          "internalType": "uint256[]",
          "name": "",
          "type": "uint256[]"
        }
      ],
      "stateMutability": "view",
      "type": "function",
      "constant": true
    },
    {
      "inputs": [
        {
          "internalType": "uint256",
          "name": "tokenId",
          "type": "uint256"
        },
        {
          "internalType": "uint256",
          "name": "value",
          "type": "uint256"
        }
      ],
      "name": "royaltyInfo",
      "outputs": [
        {
          "internalType": "address",
          "name": "",
          "type": "address"
        },
        {
          "internalType": "uint256",
          "name": "",
          "type": "uint256"
        }
      ],
      "stateMutability": "view",
      "type": "function",
      "constant": true
    },
    {
      "inputs": [
        {
          "internalType": "uint256",
          "name": "tokenId",
          "type": "uint256"
        }
      ],
      "name": "tokenURI",
      "outputs": [
        {
          "internalType": "string",
          "name": "",
          "type": "string"
        }
      ],
      "stateMutability": "view",
      "type": "function",
      "constant": true
    }
  ],
  "bytecode": "0x6080604052600060cc5534801561001557600080fd5b50600160655561521c8061002a6000396000f3fe608060405234801561001057600080fd5b50600436106102ed5760003560e01c80636d73e66911610193578063ad2d0ddd116100e4578063d5a06d4c11610092578063d5a06d4c14610686578063e00aab4b146106cd578063e92a89f6146106e0578063e985e9c5146106f3578063f0cdc49914610706578063f2fde38b14610719578063fe2e1f581461072c57600080fd5b8063ad2d0ddd1461062d578063b0fe87c914610640578063b88d4fde14610653578063b9c4d9fb14610666578063bb3bafd614610686578063c87b56dd146106a7578063ce8aee9d146106ba57600080fd5b806383b7db631161014157806383b7db63146105c95780638da5cb5b146105d157806395d89b41146105d957806399e0dd7c146105e1578063a22cb465146105f4578063aafb2d4414610607578063ac0c8cfa1461061a57600080fd5b80636d73e6691461054f57806370a0823114610562578063715018a61461057557806372ff03d31461057d5780637884af44146105905780637aa15f16146105a357806382dcc0c8146105b657600080fd5b80632d3456701161024d5780633f0f37f6116101fb5780633f0f37f6146104ca57806342842e0e146104dd57806342966c68146104f05780634cd88b761461050357806361e5bc6b146105165780636352211e1461052957806366d1e9d01461053c57600080fd5b80632d3456701461044357806330176e13146104565780633071a0f91461046957806331ae450b1461047c578063332dd1ae1461049157806338e52e78146104a45780633e6134b8146104b757600080fd5b8063162094c4116102aa578063162094c4146103a257806320e4afe2146103b5578063239be317146103c857806323b872dd146103db57806324d7806c146103ee5780632928ca58146104015780632a55205a1461042257600080fd5b806301ffc9a7146102f257806302e7afb71461031a57806306fdde031461032f578063081812fc14610344578063095ea7b31461036f5780630ebd4c7f14610382575b600080fd5b610305610300366004614764565b61073f565b60405190151581526020015b60405180910390f35b61032d6103283660046142ee565b61076e565b005b6103376107c3565b6040516103119190614c8d565b610357610352366004614901565b610855565b6040516001600160a01b039091168152602001610311565b61032d61037d3660046145d9565b6108dd565b610395610390366004614901565b6109ee565b6040516103119190614c7a565b61032d6103b036600461494d565b610a74565b61032d6103c3366004614919565b610abf565b6103576103d6366004614901565b610b38565b61032d6103e9366004614342565b610b68565b6103056103fc3660046142ee565b610b99565b61041461040f3660046142ee565b610bc8565b604051908152602001610311565b61043561043036600461497d565b610c3d565b604051610311929190614b5d565b61032d6104513660046142ee565b610c7b565b61032d61046436600461479c565b610cff565b61032d6104773660046144fc565b610d7e565b610484610dfa565b6040516103119190614b76565b61032d61049f366004614604565b610ec4565b6103956104b236600461447d565b610f11565b61032d6104c536600461479c565b611079565b61032d6104d8366004614541565b6110ac565b61032d6104eb366004614342565b611121565b61032d6104fe366004614901565b61113c565b61032d6105113660046148a1565b6111e3565b61032d61052436600461466c565b611263565b610357610537366004614901565b61132a565b61032d61054a36600461479c565b6113a1565b61032d61055d3660046142ee565b6113d2565b6104146105703660046142ee565b611451565b61032d6114d8565b61041461058b3660046142ee565b611513565b61041461059e3660046144fc565b611596565b6103956105b136600461447d565b61164d565b61032d6105c43660046147db565b6117c1565b6104846117f3565b6103576118b9565b6103376118c8565b61032d6105ef36600461479c565b6118d7565b61032d6106023660046144cf565b611921565b61032d61061536600461466c565b61192c565b61032d61062836600461472c565b611a0c565b61039561063b3660046145a6565b611b30565b61032d61064e3660046143fe565b611c69565b61032d610661366004614382565b611cb6565b610679610674366004614901565b611ce8565b6040516103119190614c42565b610699610694366004614901565b611d77565b604051610311929190614c55565b6103376106b5366004614901565b611e5b565b61032d6106c83660046142ee565b611e8b565b6103956106db3660046145a6565b611ed4565b61032d6106ee36600461494d565b611fe8565b61030561070136600461430a565b61201a565b61032d61071436600461430a565b612048565b61032d6107273660046142ee565b612092565b61041461073a3660046144fc565b61212f565b600061074a826121c0565b806107595750610759826121e5565b80610768575061076882612225565b92915050565b336107776118b9565b6001600160a01b03161480610792575061079260663361224a565b6107b75760405162461bcd60e51b81526004016107ae90614ed6565b60405180910390fd5b6107c08161226f565b50565b6060609a80546107d2906150c5565b80601f01602080910402602001604051908101604052809291908181526020018280546107fe906150c5565b801561084b5780601f106108205761010080835404028352916020019161084b565b820191906000526020600020905b81548152906001019060200180831161082e57829003601f168201915b5050505050905090565b600061086082612367565b6108c15760405162461bcd60e51b815260206004820152602c60248201527f4552433732313a20617070726f76656420717565727920666f72206e6f6e657860448201526b34b9ba32b73a103a37b5b2b760a11b60648201526084016107ae565b506000908152609e60205260409020546001600160a01b031690565b60006108e88261132a565b9050806001600160a01b0316836001600160a01b031614156109565760405162461bcd60e51b815260206004820152602160248201527f4552433732313a20617070726f76616c20746f2063757272656e74206f776e656044820152603960f91b60648201526084016107ae565b336001600160a01b03821614806109725750610972813361201a565b6109df5760405162461bcd60e51b815260206004820152603860248201527f4552433732313a20617070726f76652063616c6c6572206973206e6f74206f776044820152771b995c881b9bdc88185c1c1c9bdd995908199bdc88185b1b60421b60648201526084016107ae565b6109e98383612384565b505050565b60606109f982612367565b610a155760405162461bcd60e51b81526004016107ae90614d7f565b610a1e826123f2565b805480602002602001604051908101604052809291908181526020018280548015610a6857602002820191906000526020600020905b815481526020019060010190808311610a54575b50505050509050919050565b33610a7d6118b9565b6001600160a01b03161480610a985750610a9860663361224a565b610ab45760405162461bcd60e51b81526004016107ae90614ed6565b6109e983838361247e565b33610ac86118b9565b6001600160a01b03161480610ae35750610ae360663361224a565b610aff5760405162461bcd60e51b81526004016107ae90614ed6565b610b0885612367565b610b245760405162461bcd60e51b81526004016107ae90614d7f565b610b3185858585856124cd565b5050505050565b6000610b4382612367565b610b5f5760405162461bcd60e51b81526004016107ae90614d7f565b610768826125da565b610b723382612668565b610b8e5760405162461bcd60e51b81526004016107ae90614e85565b6109e9838383612732565b6000816001600160a01b0316610bad6118b9565b6001600160a01b03161480610768575061076860668361224a565b600060026065541415610bed5760405162461bcd60e51b81526004016107ae90614f65565b6002606555610bfd60cd3361224a565b610c195760405162461bcd60e51b81526004016107ae90614d48565b610c3282604051806020016040528060008152506128c7565b600160655592915050565b600080610c4984612367565b610c655760405162461bcd60e51b81526004016107ae90614d7f565b610c6f8484612941565b915091505b9250929050565b33610c846118b9565b6001600160a01b031614610caa5760405162461bcd60e51b81526004016107ae90614df8565b610cb560668261224a565b156107c05760405133906001600160a01b038316907f7c0c3c84c67c85fcac635147348bfe374c24a1a93d0366d1cfe9d8853cbf89d590600090a3610cfb606682612a45565b5050565b33610d086118b9565b6001600160a01b03161480610d235750610d2360663361224a565b610d3f5760405162461bcd60e51b81526004016107ae90614ed6565b610cfb82828080601f016020809104026020016040519081016040528093929190818152602001838380828437600092019190915250612a5a92505050565b33610d876118b9565b6001600160a01b03161480610da25750610da260663361224a565b610dbe5760405162461bcd60e51b81526004016107ae90614ed6565b82610dca60cf8261224a565b15610de75760405162461bcd60e51b81526004016107ae90614cf2565b610df48484846000612a7a565b50505050565b6060610e066066612bb5565b6001600160401b03811115610e2b57634e487b7160e01b600052604160045260246000fd5b604051908082528060200260200182016040528015610e54578160200160208202803683370190505b50905060005b610e646066612bb5565b811015610ec057610e76606682612bbf565b828281518110610e9657634e487b7160e01b600052603260045260246000fd5b6001600160a01b039092166020928302919091019091015280610eb88161511c565b915050610e5a565b5090565b33610ecd6118b9565b6001600160a01b03161480610ee85750610ee860663361224a565b610f045760405162461bcd60e51b81526004016107ae90614ed6565b610df43085858585612bcb565b606060026065541415610f365760405162461bcd60e51b81526004016107ae90614f65565b6002606555610f4660cd3361224a565b610f625760405162461bcd60e51b81526004016107ae90614d48565b816001600160401b03811115610f8857634e487b7160e01b600052604160045260246000fd5b604051908082528060200260200182016040528015610fb1578160200160208202803683370190505b50905060005b8281101561106c5761102f85858584818110610fe357634e487b7160e01b600052603260045260246000fd5b9050602002810190610ff59190614f9c565b8080601f0160208091040260200160405190810160405280939291908181526020018383808284376000920191909152506128c792505050565b82828151811061104f57634e487b7160e01b600052603260045260246000fd5b6020908102919091010152806110648161511c565b915050610fb7565b5060016065559392505050565b61108460cd3361224a565b6110a05760405162461bcd60e51b81526004016107ae90614d48565b610cfb82826000612d40565b336110b56118b9565b6001600160a01b031614806110d057506110d060663361224a565b6110ec5760405162461bcd60e51b81526004016107ae90614ed6565b836110f860cf8261224a565b156111155760405162461bcd60e51b81526004016107ae90614cf2565b610b3185858585612a7a565b6109e983838360405180602001604052806000815250611cb6565b6002606554141561115f5760405162461bcd60e51b81526004016107ae90614f65565b600260655561116e3382612668565b6111ba5760405162461bcd60e51b815260206004820181905260248201527f43616c6c6572206973206e6f74206f776e6572206e6f7220617070726f76656460448201526064016107ae565b60006111c58261132a565b90506111d082612d7d565b6111da8183612e12565b50506001606555565b60006111ef6001612f26565b90508015611207576000805461ff0019166101001790555b6112118383612fae565b611219612fdf565b80156109e9576000805461ff0019169055604051600181527f7f26b83ff96e1f2b6a682f133852f6798a09c465da95921460cefb38474024989060200160405180910390a1505050565b61126e60cd3361224a565b61128a5760405162461bcd60e51b81526004016107ae90614d48565b825181146112aa5760405162461bcd60e51b81526004016107ae90614e2d565b60005b8351811015610df4576113188482815181106112d957634e487b7160e01b600052603260045260246000fd5b602002602001015184848481811061130157634e487b7160e01b600052603260045260246000fd5b90506020028101906113139190614f9c565b61300e565b806113228161511c565b9150506112ad565b6000818152609c60205260408120546001600160a01b0316806107685760405162461bcd60e51b815260206004820152602960248201527f4552433732313a206f776e657220717565727920666f72206e6f6e657869737460448201526832b73a103a37b5b2b760b91b60648201526084016107ae565b6113ac60cd3361224a565b6113c85760405162461bcd60e51b81526004016107ae90614d48565b610cfb8282613044565b336113db6118b9565b6001600160a01b0316146114015760405162461bcd60e51b81526004016107ae90614df8565b61140c60668261224a565b6107c05760405133906001600160a01b038316907f7e1a1a08d52e4ba0e21554733d66165fd5151f99460116223d9e3a608eec5cb190600090a3610cfb60668261305e565b60006001600160a01b0382166114bc5760405162461bcd60e51b815260206004820152602a60248201527f4552433732313a2062616c616e636520717565727920666f7220746865207a65604482015269726f206164647265737360b01b60648201526084016107ae565b506001600160a01b03166000908152609d602052604090205490565b336114e16118b9565b6001600160a01b0316146115075760405162461bcd60e51b81526004016107ae90614df8565b6115116000613073565b565b6000600260655414156115385760405162461bcd60e51b81526004016107ae90614f65565b6002606555336115466118b9565b6001600160a01b03161480611561575061156160663361224a565b61157d5760405162461bcd60e51b81526004016107ae90614ed6565b610c3282604051806020016040528060008152506130c5565b6000600260655414156115bb5760405162461bcd60e51b81526004016107ae90614f65565b6002606555336115c96118b9565b6001600160a01b031614806115e457506115e460663361224a565b6116005760405162461bcd60e51b81526004016107ae90614ed6565b6116408484848080601f0160208091040260200160405190810160405280939291908181526020018383808284376000920191909152506130c592505050565b6001606555949350505050565b6060600260655414156116725760405162461bcd60e51b81526004016107ae90614f65565b6002606555336116806118b9565b6001600160a01b0316148061169b575061169b60663361224a565b6116b75760405162461bcd60e51b81526004016107ae90614ed6565b816001600160401b038111156116dd57634e487b7160e01b600052604160045260246000fd5b604051908082528060200260200182016040528015611706578160200160208202803683370190505b50905060005b8281101561106c576117848585858481811061173857634e487b7160e01b600052603260045260246000fd5b905060200281019061174a9190614f9c565b8080601f0160208091040260200160405190810160405280939291908181526020018383808284376000920191909152506130c592505050565b8282815181106117a457634e487b7160e01b600052603260045260246000fd5b6020908102919091010152806117b98161511c565b91505061170c565b6117cc60cd3361224a565b6117e85760405162461bcd60e51b81526004016107ae90614d48565b6109e9838383612d40565b60606117ff60cd612bb5565b6001600160401b0381111561182457634e487b7160e01b600052604160045260246000fd5b60405190808252806020026020018201604052801561184d578160200160208202803683370190505b50905060005b61185d60cd612bb5565b811015610ec05761186f60cd82612bbf565b82828151811061188f57634e487b7160e01b600052603260045260246000fd5b6001600160a01b0390921660209283029190910190910152806118b18161511c565b915050611853565b6033546001600160a01b031690565b6060609b80546107d2906150c5565b336118e06118b9565b6001600160a01b031614806118fb57506118fb60663361224a565b6119175760405162461bcd60e51b81526004016107ae90614ed6565b610cfb8282613108565b610cfb338383613122565b336119356118b9565b6001600160a01b03161480611950575061195060663361224a565b61196c5760405162461bcd60e51b81526004016107ae90614ed6565b8251811461198c5760405162461bcd60e51b81526004016107ae90614e2d565b60005b8351811015610df4576119fa8482815181106119bb57634e487b7160e01b600052603260045260246000fd5b60200260200101518484848181106119e357634e487b7160e01b600052603260045260246000fd5b90506020028101906119f59190614f9c565b61247e565b80611a048161511c565b91505061198f565b611a1760cd3361224a565b611a335760405162461bcd60e51b81526004016107ae90614d48565b801580611a4c5750611a4c33634ce6d51160e11b6131ed565b611abe5760405162461bcd60e51b815260206004820152603f60248201527f457874656e73696f6e206d75737420696d706c656d656e74204945524337323160448201527f43726561746f72457874656e73696f6e417070726f76655472616e736665720060648201526084016107ae565b33600090815260d2602052604090205460ff161515811515146107c05733600081815260d26020908152604091829020805460ff191685151590811790915591519182527f072a7592283e2c2d1d56d21517ff6013325e0f55483f4828373ff4d98b0a1a36910160405180910390a250565b606060026065541415611b555760405162461bcd60e51b81526004016107ae90614f65565b600260655533611b636118b9565b6001600160a01b03161480611b7e5750611b7e60663361224a565b611b9a5760405162461bcd60e51b81526004016107ae90614ed6565b8161ffff166001600160401b03811115611bc457634e487b7160e01b600052604160045260246000fd5b604051908082528060200260200182016040528015611bed578160200160208202803683370190505b50905060005b8261ffff168161ffff161015611c5d57611c1c84604051806020016040528060008152506130c5565b828261ffff1681518110611c4057634e487b7160e01b600052603260045260246000fd5b602090810291909101015280611c55816150fa565b915050611bf3565b50600160655592915050565b33611c726118b9565b6001600160a01b03161480611c8d5750611c8d60663361224a565b611ca95760405162461bcd60e51b81526004016107ae90614ed6565b610b318585858585612bcb565b611cc03383612668565b611cdc5760405162461bcd60e51b81526004016107ae90614e85565b610df484848484613209565b6060611cf382612367565b611d0f5760405162461bcd60e51b81526004016107ae90614d7f565b611d188261323c565b805480602002602001604051908101604052809291908181526020018280548015610a6857602002820191906000526020600020905b81546001600160a01b03168152600190910190602001808311611d4e5750505050509050919050565b606080611d8383612367565b611d9f5760405162461bcd60e51b81526004016107ae90614d7f565b611da8836132c8565b815460408051602080840282018101909252828152918491830182828015611df957602002820191906000526020600020905b81546001600160a01b03168152600190910190602001808311611ddb575b5050505050915080805480602002602001604051908101604052809291908181526020018280548015611e4b57602002820191906000526020600020905b815481526020019060010190808311611e37575b5050505050905091509150915091565b6060611e6682612367565b611e825760405162461bcd60e51b81526004016107ae90614d7f565b610768826132e6565b33611e946118b9565b6001600160a01b03161480611eaf5750611eaf60663361224a565b611ecb5760405162461bcd60e51b81526004016107ae90614ed6565b6107c08161356f565b606060026065541415611ef95760405162461bcd60e51b81526004016107ae90614f65565b6002606555611f0960cd3361224a565b611f255760405162461bcd60e51b81526004016107ae90614d48565b8161ffff166001600160401b03811115611f4f57634e487b7160e01b600052604160045260246000fd5b604051908082528060200260200182016040528015611f78578160200160208202803683370190505b50905060005b8261ffff168161ffff161015611c5d57611fa784604051806020016040528060008152506128c7565b828261ffff1681518110611fcb57634e487b7160e01b600052603260045260246000fd5b602090810291909101015280611fe0816150fa565b915050611f7e565b611ff360cd3361224a565b61200f5760405162461bcd60e51b81526004016107ae90614d48565b6109e983838361300e565b6001600160a01b039182166000908152609f6020908152604080832093909416825291909152205460ff1690565b336120516118b9565b6001600160a01b0316148061206c575061206c60663361224a565b6120885760405162461bcd60e51b81526004016107ae90614ed6565b610cfb82826135c0565b3361209b6118b9565b6001600160a01b0316146120c15760405162461bcd60e51b81526004016107ae90614df8565b6001600160a01b0381166121265760405162461bcd60e51b815260206004820152602660248201527f4f776e61626c653a206e6577206f776e657220697320746865207a65726f206160448201526564647265737360d01b60648201526084016107ae565b6107c081613073565b6000600260655414156121545760405162461bcd60e51b81526004016107ae90614f65565b600260655561216460cd3361224a565b6121805760405162461bcd60e51b81526004016107ae90614d48565b6116408484848080601f0160208091040260200160405190810160405280939291908181526020018383808284376000920191909152506128c792505050565b60006001600160e01b03198216639088c20760e01b14806107685750610768826136f5565b60006001600160e01b031982166380ac58cd60e01b148061221657506001600160e01b03198216635b5e139f60e01b145b8061076857506107688261378b565b60006001600160e01b03198216632a9f3abf60e11b148061076857506107688261378b565b6001600160a01b038116600090815260018301602052604081205415155b9392505050565b6001600160a01b0381163014156122c45760405162461bcd60e51b815260206004820152601960248201527821b0b73737ba10313630b1b5b634b9ba103cb7bab939b2b63360391b60448201526064016107ae565b6122cf60cd8261224a565b156123175760405133906001600160a01b038316907fd19cf84cf0fec6bec9ddfa29c63adf83a55707c712f32c8285d6180a7890147990600090a361231560cd82612a45565b505b61232260cf8261224a565b6107c05760405133906001600160a01b038316907f05ac7bc5a606cd92a63365f9fda244499b9add0526b22d99937b6bd88181059c90600090a3610cfb60cf8261305e565b6000908152609c60205260409020546001600160a01b0316151590565b6000818152609e6020526040902080546001600160a01b0319166001600160a01b03841690811790915581906123b98261132a565b6001600160a01b03167f8c5be1e5ebec7d5bd14f71427d1e84f3dd0314c0f7b2291e5b200ac8c7c3b92560405160405180910390a45050565b600081815260db6020526040812054156124185750600090815260db6020526040902090565b600082815260d360209081526040808320546001600160a01b0316835260d99091529020541561246a5750600090815260d360209081526040808320546001600160a01b0316835260d9909152902090565b505030600090815260d96020526040902090565b600083815260d360205260409020546001600160a01b031630146124b45760405162461bcd60e51b81526004016107ae90614d21565b600083815260d760205260409020610df4908383614044565b8281146124ec5760405162461bcd60e51b81526004016107ae90614e2d565b6000805b8281101561253e5783838281811061251857634e487b7160e01b600052603260045260246000fd5b905060200201358261252a9190615037565b9150806125368161511c565b9150506124f0565b5061271081106125605760405162461bcd60e51b81526004016107ae90614e54565b600086815260da602052604090206125799086866140c4565b50600086815260db60205260409020612593908484614117565b50857fabb46fe0761d77584bde75697647804ffd8113abd4d8d06bc664150395eccdee868686866040516125ca9493929190614bc3565b60405180910390a2505050505050565b600081815260d360205260409020546001600160a01b03163081141561263b5760405162461bcd60e51b815260206004820152601660248201527527379032bc3a32b739b4b7b7103337b9103a37b5b2b760511b60448201526064016107ae565b61264660cf8261224a565b156126635760405162461bcd60e51b81526004016107ae90614cf2565b919050565b600061267382612367565b6126d45760405162461bcd60e51b815260206004820152602c60248201527f4552433732313a206f70657261746f7220717565727920666f72206e6f6e657860448201526b34b9ba32b73a103a37b5b2b760a11b60648201526084016107ae565b60006126df8361132a565b9050806001600160a01b0316846001600160a01b031614806127065750612706818561201a565b8061272a5750836001600160a01b031661271f84610855565b6001600160a01b0316145b949350505050565b826001600160a01b03166127458261132a565b6001600160a01b0316146127a95760405162461bcd60e51b815260206004820152602560248201527f4552433732313a207472616e736665722066726f6d20696e636f72726563742060448201526437bbb732b960d91b60648201526084016107ae565b6001600160a01b03821661280b5760405162461bcd60e51b8152602060048201526024808201527f4552433732313a207472616e7366657220746f20746865207a65726f206164646044820152637265737360e01b60648201526084016107ae565b6128168383836137a1565b612821600082612384565b6001600160a01b0383166000908152609d6020526040812080546001929061284a908490615082565b90915550506001600160a01b0382166000908152609d60205260408120805460019290612878908490615037565b90915550506000818152609c602052604080822080546001600160a01b0319166001600160a01b0386811691821790925591518493918716916000805160206151c783398151915291a4505050565b60cc8054600091826128d88361511c565b919050555060cc5490506128ec83826137ac565b600081815260d36020526040902080546001600160a01b031916331790556129148382613840565b81511561293c57600081815260d760209081526040909120835161293a92850190614151565b505b610768565b600080600061294f8561323c565b8054909150600110156129a45760405162461bcd60e51b815260206004820152601c60248201527f4d6f7265207468616e203120726f79616c74792072656365697665720000000060448201526064016107ae565b80546129b7573060009250925050610c74565b806000815481106129d857634e487b7160e01b600052603260045260246000fd5b6000918252602090912001546001600160a01b0316612710856129fa886123f2565b600081548110612a1a57634e487b7160e01b600052603260045260246000fd5b9060005260206000200154612a2f9190615063565b612a39919061504f565b92509250509250929050565b6000612268836001600160a01b03841661385a565b30600090815260d4602090815260409091208251610cfb92840190614151565b6001600160a01b038416301415612ac65760405162461bcd60e51b815260206004820152601060248201526f10dc99585d1bdc8e88125b9d985b1a5960821b60448201526064016107ae565b6001600160a01b0384163b612b2b5760405162461bcd60e51b815260206004820152602560248201527f43726561746f723a20457874656e73696f6e206d757374206265206120636f6e6044820152641d1c9858dd60da1b60648201526084016107ae565b612b3660cd8561224a565b610df4576001600160a01b038416600090815260d460205260409020612b5d908484614044565b506001600160a01b038416600081815260d56020526040808220805460ff1916851515179055513392917fd8cb8ba4086944eabf43c5535b7712015e4d4c714b24bf812c040ea5b7a3e42a91a3610b3160cd8561305e565b6000610768825490565b60006122688383613977565b828114612bea5760405162461bcd60e51b81526004016107ae90614e2d565b6000805b82811015612c3c57838382818110612c1657634e487b7160e01b600052603260045260246000fd5b9050602002013582612c289190615037565b915080612c348161511c565b915050612bee565b506127108110612c5e5760405162461bcd60e51b81526004016107ae90614e54565b6001600160a01b038616600090815260d860205260409020612c819086866140c4565b506001600160a01b038616600090815260d960205260409020612ca5908484614117565b506001600160a01b038616301415612cf9577f2b6849d5976d799a5b0ca4dfd6b40a3d7afe9ea72c091fa01a958594f9a2659b85858585604051612cec9493929190614bc3565b60405180910390a1612d38565b856001600160a01b03167f535a93d2cb000582c0ebeaa9be4890ec6a287f98eb2df00c54c300612fd78d8f868686866040516125ca9493929190614bc3565b505050505050565b33600090815260d460205260409020612d5a908484614044565b5033600090815260d560205260409020805460ff19169115159190911790555050565b6000612d888261132a565b9050612d96816000846137a1565b612da1600083612384565b6001600160a01b0381166000908152609d60205260408120805460019290612dca908490615082565b90915550506000828152609c602052604080822080546001600160a01b0319169055518391906001600160a01b038416906000805160206151c7833981519152908390a45050565b600081815260d360205260409020546001600160a01b03163014612ed057600081815260d36020526040902054612e59906001600160a01b03166311686e4b60e21b6131ed565b15612ed057600081815260d36020526040908190205490516311686e4b60e21b81526001600160a01b03909116906345a1b92c90612e9d9085908590600401614b5d565b600060405180830381600087803b158015612eb757600080fd5b505af1158015612ecb573d6000803e3d6000fd5b505050505b600081815260d7602052604090208054612ee9906150c5565b159050612f0757600081815260d760205260408120612f07916141c5565b600090815260d36020526040902080546001600160a01b031916905550565b60008054610100900460ff1615612f6d578160ff166001148015612f495750303b155b612f655760405162461bcd60e51b81526004016107ae90614daa565b506000919050565b60005460ff808416911610612f945760405162461bcd60e51b81526004016107ae90614daa565b506000805460ff191660ff92909216919091179055600190565b600054610100900460ff16612fd55760405162461bcd60e51b81526004016107ae90614f1a565b610cfb82826139af565b600054610100900460ff166130065760405162461bcd60e51b81526004016107ae90614f1a565b6115116139fd565b600083815260d360205260409020546001600160a01b031633146124b45760405162461bcd60e51b81526004016107ae90614d21565b33600090815260d6602052604090206109e9908383614044565b6000612268836001600160a01b038416613a2d565b603380546001600160a01b038381166001600160a01b0319831681179093556040519116919082907f8be0079c531659141344cd1fd0a4f28419497f9722a3daafe3b4186f6b6457e090600090a35050565b60cc8054600091826130d68361511c565b909155505060cc54600081815260d36020526040902080546001600160a01b0319163017905590506129148382613840565b30600090815260d6602052604090206109e9908383614044565b816001600160a01b0316836001600160a01b031614156131805760405162461bcd60e51b815260206004820152601960248201527822a9219b99189d1030b8383937bb32903a379031b0b63632b960391b60448201526064016107ae565b6001600160a01b038381166000818152609f6020908152604080832094871680845294825291829020805460ff191686151590811790915591519182527f17307eab39ab6107e8899845ad3d59bd9653f200f220920489ca2b5937696c31910160405180910390a3505050565b60006131f883613a7c565b801561226857506122688383613aaf565b613214848484612732565b61322084848484613b98565b610df45760405162461bcd60e51b81526004016107ae90614ca0565b600081815260da6020526040812054156132625750600090815260da6020526040902090565b600082815260d360209081526040808320546001600160a01b0316835260d8909152902054156132b45750600090815260d360209081526040808320546001600160a01b0316835260d8909152902090565b505030600090815260d86020526040902090565b6000806132d48361323c565b6132dd846123f2565b91509150915091565b600081815260d360205260409020546060906001600160a01b031661330c60cf8261224a565b156133295760405162461bcd60e51b81526004016107ae90614cf2565b600083815260d7602052604090208054613342906150c5565b15905061345c576001600160a01b038116600090815260d660205260409020805461336c906150c5565b1590506133bd576001600160a01b038116600090815260d66020908152604080832086845260d783529281902090516133a6939201614b15565b604051602081830303815290604052915050919050565b600083815260d76020526040902080546133d6906150c5565b80601f0160208091040260200160405190810160405280929190818152602001828054613402906150c5565b801561344f5780601f106134245761010080835404028352916020019161344f565b820191906000526020600020905b81548152906001019060200180831161343257829003601f168201915b5050505050915050919050565b61346d8163e9dc637560e01b6131ed565b156134f45760405163e9dc637560e01b81526001600160a01b0382169063e9dc6375906134a09030908790600401614b5d565b60006040518083038186803b1580156134b857600080fd5b505afa1580156134cc573d6000803e3d6000fd5b505050506040513d6000823e601f3d908101601f19168201604052612268919081019061482f565b6001600160a01b038116600090815260d5602052604090205460ff16613546576001600160a01b038116600090815260d46020526040902061353584613ca5565b6040516020016133a6929190614af0565b6001600160a01b038116600090815260d46020526040902080546133d6906150c5565b50919050565b61357a60cd8261224a565b156107c05760405133906001600160a01b038316907fd19cf84cf0fec6bec9ddfa29c63adf83a55707c712f32c8285d6180a7890147990600090a3610cfb60cd82612a45565b6135cb60cd8361224a565b6136175760405162461bcd60e51b815260206004820152601e60248201527f43726561746f72436f72653a20496e76616c696420657874656e73696f6e000060448201526064016107ae565b6001600160a01b0381161580613639575061363981631e05385b60e31b6131ed565b6136775760405162461bcd60e51b815260206004820152600f60248201526e496e76616c6964206164647265737360881b60448201526064016107ae565b6001600160a01b03828116600090815260d16020526040902054811690821614610cfb576001600160a01b03828116600081815260d1602052604080822080546001600160a01b031916948616948517905551339392917f6a835c4fcf7e0d398db3762332fdaa1471814ad39f1e2d6d0b3fdabf8efee3e091a45050565b60006001600160e01b031982166328f10a2160e01b148061371a575061371a826121e5565b8061373557506001600160e01b03198216635d9dd7eb60e11b145b8061375057506001600160e01b03198216632dde656160e21b145b8061376b57506001600160e01b031982166335681b5360e21b145b8061076857506001600160e01b0319821663152a902d60e11b1492915050565b6001600160e01b0319166301ffc9a760e01b1490565b6109e9838383613dbe565b33600090815260d160205260409020546001600160a01b031615610cfb5733600081815260d1602052604090819020549051631e05385b60e31b815260048101929092526001600160a01b03848116602484015260448301849052169063f029c2d890606401600060405180830381600087803b15801561382c57600080fd5b505af1158015612d38573d6000803e3d6000fd5b610cfb828260405180602001604052806000815250613ee4565b6000818152600183016020526040812054801561396d57600061387e600183615082565b855490915060009061389290600190615082565b90508181146139135760008660000182815481106138c057634e487b7160e01b600052603260045260246000fd5b90600052602060002001549050808760000184815481106138f157634e487b7160e01b600052603260045260246000fd5b6000918252602080832090910192909255918252600188019052604090208390555b855486908061393257634e487b7160e01b600052603160045260246000fd5b600190038181906000526020600020016000905590558560010160008681526020019081526020016000206000905560019350505050610768565b6000915050610768565b600082600001828154811061399c57634e487b7160e01b600052603260045260246000fd5b9060005260206000200154905092915050565b600054610100900460ff166139d65760405162461bcd60e51b81526004016107ae90614f1a565b81516139e990609a906020850190614151565b5080516109e990609b906020840190614151565b600054610100900460ff16613a245760405162461bcd60e51b81526004016107ae90614f1a565b61151133613073565b6000818152600183016020526040812054613a7457508154600181810184556000848152602080822090930184905584548482528286019093526040902091909155610768565b506000610768565b6000613a8f826301ffc9a760e01b613aaf565b80156107685750613aa8826001600160e01b0319613aaf565b1592915050565b604080516001600160e01b0319831660248083019190915282518083039091018152604490910182526020810180516001600160e01b03166301ffc9a760e01b179052905160009190829081906001600160a01b0387169061753090613b16908690614ad4565b6000604051808303818686fa925050503d8060008114613b52576040519150601f19603f3d011682016040523d82523d6000602084013e613b57565b606091505b5091509150602081511015613b725760009350505050610768565b818015613b8e575080806020019051810190613b8e9190614748565b9695505050505050565b60006001600160a01b0384163b15613c9a57604051630a85bd0160e11b81526001600160a01b0385169063150b7a0290613bdc903390899088908890600401614b2a565b602060405180830381600087803b158015613bf657600080fd5b505af1925050508015613c26575060408051601f3d908101601f19168201909252613c2391810190614780565b60015b613c80573d808015613c54576040519150601f19603f3d011682016040523d82523d6000602084013e613c59565b606091505b508051613c785760405162461bcd60e51b81526004016107ae90614ca0565b805181602001fd5b6001600160e01b031916630a85bd0160e11b14905061272a565b506001949350505050565b606081613cc95750506040805180820190915260018152600360fc1b602082015290565b8160005b8115613cf35780613cdd8161511c565b9150613cec9050600a8361504f565b9150613ccd565b6000816001600160401b03811115613d1b57634e487b7160e01b600052604160045260246000fd5b6040519080825280601f01601f191660200182016040528015613d45576020820181803683370190505b5090505b841561272a57613d5a600183615082565b9150613d67600a86615137565b613d72906030615037565b60f81b818381518110613d9557634e487b7160e01b600052603260045260246000fd5b60200101906001600160f81b031916908160001a905350613db7600a8661504f565b9450613d49565b600081815260d360209081526040808320546001600160a01b0316835260d290915290205460ff16156109e957600081815260d3602052604090819020549051638258080560e01b81526001600160a01b03858116600483015284811660248301526044820184905290911690638258080590606401602060405180830381600087803b158015613e4e57600080fd5b505af1158015613e62573d6000803e3d6000fd5b505050506040513d601f19601f82011682018060405250810190613e869190614748565b6109e95760405162461bcd60e51b815260206004820152602960248201527f45524337323143726561746f723a20457874656e73696f6e20617070726f76616044820152686c206661696c75726560b81b60648201526084016107ae565b613eee8383613f17565b613efb6000848484613b98565b6109e95760405162461bcd60e51b81526004016107ae90614ca0565b6001600160a01b038216613f6d5760405162461bcd60e51b815260206004820181905260248201527f4552433732313a206d696e7420746f20746865207a65726f206164647265737360448201526064016107ae565b613f7681612367565b15613fc35760405162461bcd60e51b815260206004820152601c60248201527f4552433732313a20746f6b656e20616c7265616479206d696e7465640000000060448201526064016107ae565b613fcf600083836137a1565b6001600160a01b0382166000908152609d60205260408120805460019290613ff8908490615037565b90915550506000818152609c602052604080822080546001600160a01b0319166001600160a01b03861690811790915590518392906000805160206151c7833981519152908290a45050565b828054614050906150c5565b90600052602060002090601f01602090048101928261407257600085556140b8565b82601f1061408b5782800160ff198235161785556140b8565b828001600101855582156140b8579182015b828111156140b857823582559160200191906001019061409d565b50610ec09291506141fb565b8280548282559060005260206000209081019282156140b8579160200282015b828111156140b85781546001600160a01b0319166001600160a01b038435161782556020909201916001909101906140e4565b8280548282559060005260206000209081019282156140b857916020028201828111156140b857823582559160200191906001019061409d565b82805461415d906150c5565b90600052602060002090601f01602090048101928261417f57600085556140b8565b82601f1061419857805160ff19168380011785556140b8565b828001600101855582156140b8579182015b828111156140b85782518255916020019190600101906141aa565b5080546141d1906150c5565b6000825580601f106141e1575050565b601f0160209004906000526020600020908101906107c091905b5b80821115610ec057600081556001016141fc565b600061422361421e84615010565b614fe0565b905082815283838301111561423757600080fd5b828260208301376000602084830101529392505050565b60008083601f84011261425f578182fd5b5081356001600160401b03811115614275578182fd5b6020830191508360208260051b8501011115610c7457600080fd5b60008083601f8401126142a1578182fd5b5081356001600160401b038111156142b7578182fd5b602083019150836020828501011115610c7457600080fd5b600082601f8301126142df578081fd5b61226883833560208501614210565b6000602082840312156142ff578081fd5b81356122688161518d565b6000806040838503121561431c578081fd5b82356143278161518d565b915060208301356143378161518d565b809150509250929050565b600080600060608486031215614356578081fd5b83356143618161518d565b925060208401356143718161518d565b929592945050506040919091013590565b60008060008060808587031215614397578081fd5b84356143a28161518d565b935060208501356143b28161518d565b92506040850135915060608501356001600160401b038111156143d3578182fd5b8501601f810187136143e3578182fd5b6143f287823560208401614210565b91505092959194509250565b600080600080600060608688031215614415578081fd5b85356144208161518d565b945060208601356001600160401b038082111561443b578283fd5b61444789838a0161424e565b9096509450604088013591508082111561445f578283fd5b5061446c8882890161424e565b969995985093965092949392505050565b600080600060408486031215614491578081fd5b833561449c8161518d565b925060208401356001600160401b038111156144b6578182fd5b6144c28682870161424e565b9497909650939450505050565b600080604083850312156144e1578182fd5b82356144ec8161518d565b91506020830135614337816151a2565b600080600060408486031215614510578081fd5b833561451b8161518d565b925060208401356001600160401b03811115614535578182fd5b6144c286828701614290565b60008060008060608587031215614556578182fd5b84356145618161518d565b935060208501356001600160401b0381111561457b578283fd5b61458787828801614290565b909450925050604085013561459b816151a2565b939692955090935050565b600080604083850312156145b8578182fd5b82356145c38161518d565b9150602083013561ffff81168114614337578182fd5b600080604083850312156145eb578182fd5b82356145f68161518d565b946020939093013593505050565b60008060008060408587031215614619578182fd5b84356001600160401b038082111561462f578384fd5b61463b8883890161424e565b90965094506020870135915080821115614653578384fd5b506146608782880161424e565b95989497509550505050565b600080600060408486031215614680578081fd5b83356001600160401b0380821115614696578283fd5b818601915086601f8301126146a9578283fd5b81356020828211156146bd576146bd615177565b8160051b6146cc828201614fe0565b8381528281019086840183880185018d10156146e6578889fd5b8897505b858810156147085780358352600197909701969184019184016146ea565b50985050508701359250508082111561471f578283fd5b506144c28682870161424e565b60006020828403121561473d578081fd5b8135612268816151a2565b600060208284031215614759578081fd5b8151612268816151a2565b600060208284031215614775578081fd5b8135612268816151b0565b600060208284031215614791578081fd5b8151612268816151b0565b600080602083850312156147ae578182fd5b82356001600160401b038111156147c3578283fd5b6147cf85828601614290565b90969095509350505050565b6000806000604084860312156147ef578081fd5b83356001600160401b03811115614804578182fd5b61481086828701614290565b9094509250506020840135614824816151a2565b809150509250925092565b600060208284031215614840578081fd5b81516001600160401b03811115614855578182fd5b8201601f81018413614865578182fd5b805161487361421e82615010565b818152856020838501011115614887578384fd5b614898826020830160208601615099565b95945050505050565b600080604083850312156148b3578182fd5b82356001600160401b03808211156148c9578384fd5b6148d5868387016142cf565b935060208501359150808211156148ea578283fd5b506148f7858286016142cf565b9150509250929050565b600060208284031215614912578081fd5b5035919050565b600080600080600060608688031215614930578283fd5b8535945060208601356001600160401b038082111561443b578485fd5b600080600060408486031215614961578081fd5b8335925060208401356001600160401b03811115614535578182fd5b6000806040838503121561498f578182fd5b50508035926020909101359150565b6000815180845260208085019450808401835b838110156149d65781516001600160a01b0316875295820195908201906001016149b1565b509495945050505050565b6000815180845260208085019450808401835b838110156149d6578151875295820195908201906001016149f4565b60008151808452614a28816020860160208601615099565b601f01601f19169290920160200192915050565b8054600090600181811c9080831680614a5657607f831692505b6020808410821415614a7657634e487b7160e01b86526022600452602486fd5b818015614a8a5760018114614a9b57614ac8565b60ff19861689528489019650614ac8565b60008881526020902060005b86811015614ac05781548b820152908501908301614aa7565b505084890196505b50505050505092915050565b60008251614ae6818460208701615099565b9190910192915050565b6000614afc8285614a3c565b8351614b0c818360208801615099565b01949350505050565b600061272a614b248386614a3c565b84614a3c565b6001600160a01b0385811682528416602082015260408101839052608060608201819052600090613b8e90830184614a10565b6001600160a01b03929092168252602082015260400190565b6020808252825182820181905260009190848201906040850190845b81811015614bb75783516001600160a01b031683529284019291840191600101614b92565b50909695505050505050565b6040808252810184905260008560608301825b87811015614c06578235614be98161518d565b6001600160a01b0316825260209283019290910190600101614bd6565b5083810360208501528481526001600160fb1b03851115614c25578283fd5b8460051b9150818660208301370160200190815295945050505050565b602081526000612268602083018461499e565b604081526000614c68604083018561499e565b828103602084015261489881856149e1565b60208152600061226860208301846149e1565b6020815260006122686020830184614a10565b60208082526032908201527f4552433732313a207472616e7366657220746f206e6f6e20455243373231526560408201527131b2b4bb32b91034b6b83632b6b2b73a32b960711b606082015260800190565b602080825260159082015274115e1d195b9cda5bdb88189b1858dadb1a5cdd1959605a1b604082015260600190565b6020808252600d908201526c24b73b30b634b2103a37b5b2b760991b604082015260600190565b6020808252601c908201527f4d757374206265207265676973746572656420657874656e73696f6e00000000604082015260600190565b6020808252601190820152702737b732bc34b9ba32b73a103a37b5b2b760791b604082015260600190565b6020808252602e908201527f496e697469616c697a61626c653a20636f6e747261637420697320616c72656160408201526d191e481a5b9a5d1a585b1a5e995960921b606082015260800190565b6020808252818101527f4f776e61626c653a2063616c6c6572206973206e6f7420746865206f776e6572604082015260600190565b6020808252600d908201526c125b9d985b1a59081a5b9c1d5d609a1b604082015260600190565b602080825260179082015276496e76616c696420746f74616c20726f79616c7469657360481b604082015260600190565b60208082526031908201527f4552433732313a207472616e736665722063616c6c6572206973206e6f74206f6040820152701ddb995c881b9bdc88185c1c1c9bdd9959607a1b606082015260800190565b60208082526024908201527f41646d696e436f6e74726f6c3a204d757374206265206f776e6572206f7220616040820152633236b4b760e11b606082015260800190565b6020808252602b908201527f496e697469616c697a61626c653a20636f6e7472616374206973206e6f74206960408201526a6e697469616c697a696e6760a81b606082015260800190565b6020808252601f908201527f5265656e7472616e637947756172643a207265656e7472616e742063616c6c00604082015260600190565b6000808335601e19843603018112614fb2578283fd5b8301803591506001600160401b03821115614fcb578283fd5b602001915036819003821315610c7457600080fd5b604051601f8201601f191681016001600160401b038111828210171561500857615008615177565b604052919050565b60006001600160401b0382111561502957615029615177565b50601f01601f191660200190565b6000821982111561504a5761504a61514b565b500190565b60008261505e5761505e615161565b500490565b600081600019048311821515161561507d5761507d61514b565b500290565b6000828210156150945761509461514b565b500390565b60005b838110156150b457818101518382015260200161509c565b83811115610df45750506000910152565b600181811c908216806150d957607f821691505b6020821081141561356957634e487b7160e01b600052602260045260246000fd5b600061ffff808316818114156151125761511261514b565b6001019392505050565b60006000198214156151305761513061514b565b5060010190565b60008261514657615146615161565b500690565b634e487b7160e01b600052601160045260246000fd5b634e487b7160e01b600052601260045260246000fd5b634e487b7160e01b600052604160045260246000fd5b6001600160a01b03811681146107c057600080fd5b80151581146107c057600080fd5b6001600160e01b0319811681146107c057600080fdfeddf252ad1be2c89b69c2b068fc378daa952ba7f163c4a11628f55a4df523b3efa2646970667358221220fa30a3169a64de40740cb45d18b716006a745cd27f573f04ee82878920860e2664736f6c63430008040033",
  "immutableReferences": {},
  "source": "// SPDX-License-Identifier: MIT\n\npragma solidity ^0.8.0;\n\n/// @author: manifold.xyz\n\nimport \"@openzeppelin/contracts-upgradeable/token/ERC721/ERC721Upgradeable.sol\";\nimport \"@manifoldxyz/libraries-solidity/contracts/access/AdminControlUpgradeable.sol\";\n\nimport \"./core/ERC721CreatorCore.sol\";\n\n/**\n * @dev ERC721Creator implementation\n */\ncontract ERC721CreatorImplementation is AdminControlUpgradeable, ERC721Upgradeable, ERC721CreatorCore {\n\n    /**\n     * Initializer\n     */\n    function initialize(string memory _name, string memory _symbol) public initializer {\n        __ERC721_init(_name, _symbol);\n        __Ownable_init();\n    }\n\n    /**\n     * @dev See {IERC165-supportsInterface}.\n     */\n    function supportsInterface(bytes4 interfaceId) public view virtual override(ERC721Upgradeable, ERC721CreatorCore, AdminControlUpgradeable) returns (bool) {\n        return ERC721CreatorCore.supportsInterface(interfaceId) || ERC721Upgradeable.supportsInterface(interfaceId) || AdminControlUpgradeable.supportsInterface(interfaceId);\n    }\n\n    function _beforeTokenTransfer(address from, address to, uint256 tokenId) internal virtual override {\n        _approveTransfer(from, to, tokenId);    \n    }\n\n    /**\n     * @dev See {ICreatorCore-registerExtension}.\n     */\n    function registerExtension(address extension, string calldata baseURI) external override adminRequired nonBlacklistRequired(extension) {\n        _registerExtension(extension, baseURI, false);\n    }\n\n    /**\n     * @dev See {ICreatorCore-registerExtension}.\n     */\n    function registerExtension(address extension, string calldata baseURI, bool baseURIIdentical) external override adminRequired nonBlacklistRequired(extension) {\n        _registerExtension(extension, baseURI, baseURIIdentical);\n    }\n\n\n    /**\n     * @dev See {ICreatorCore-unregisterExtension}.\n     */\n    function unregisterExtension(address extension) external override adminRequired {\n        _unregisterExtension(extension);\n    }\n\n    /**\n     * @dev See {ICreatorCore-blacklistExtension}.\n     */\n    function blacklistExtension(address extension) external override adminRequired {\n        _blacklistExtension(extension);\n    }\n\n    /**\n     * @dev See {ICreatorCore-setBaseTokenURIExtension}.\n     */\n    function setBaseTokenURIExtension(string calldata uri) external override extensionRequired {\n        _setBaseTokenURIExtension(uri, false);\n    }\n\n    /**\n     * @dev See {ICreatorCore-setBaseTokenURIExtension}.\n     */\n    function setBaseTokenURIExtension(string calldata uri, bool identical) external override extensionRequired {\n        _setBaseTokenURIExtension(uri, identical);\n    }\n\n    /**\n     * @dev See {ICreatorCore-setTokenURIPrefixExtension}.\n     */\n    function setTokenURIPrefixExtension(string calldata prefix) external override extensionRequired {\n        _setTokenURIPrefixExtension(prefix);\n    }\n\n    /**\n     * @dev See {ICreatorCore-setTokenURIExtension}.\n     */\n    function setTokenURIExtension(uint256 tokenId, string calldata uri) external override extensionRequired {\n        _setTokenURIExtension(tokenId, uri);\n    }\n\n    /**\n     * @dev See {ICreatorCore-setTokenURIExtension}.\n     */\n    function setTokenURIExtension(uint256[] memory tokenIds, string[] calldata uris) external override extensionRequired {\n        require(tokenIds.length == uris.length, \"Invalid input\");\n        for (uint i = 0; i < tokenIds.length; i++) {\n            _setTokenURIExtension(tokenIds[i], uris[i]);            \n        }\n    }\n\n    /**\n     * @dev See {ICreatorCore-setBaseTokenURI}.\n     */\n    function setBaseTokenURI(string calldata uri) external override adminRequired {\n        _setBaseTokenURI(uri);\n    }\n\n    /**\n     * @dev See {ICreatorCore-setTokenURIPrefix}.\n     */\n    function setTokenURIPrefix(string calldata prefix) external override adminRequired {\n        _setTokenURIPrefix(prefix);\n    }\n\n    /**\n     * @dev See {ICreatorCore-setTokenURI}.\n     */\n    function setTokenURI(uint256 tokenId, string calldata uri) external override adminRequired {\n        _setTokenURI(tokenId, uri);\n    }\n\n    /**\n     * @dev See {ICreatorCore-setTokenURI}.\n     */\n    function setTokenURI(uint256[] memory tokenIds, string[] calldata uris) external override adminRequired {\n        require(tokenIds.length == uris.length, \"Invalid input\");\n        for (uint i = 0; i < tokenIds.length; i++) {\n            _setTokenURI(tokenIds[i], uris[i]);            \n        }\n    }\n\n    /**\n     * @dev See {ICreatorCore-setMintPermissions}.\n     */\n    function setMintPermissions(address extension, address permissions) external override adminRequired {\n        _setMintPermissions(extension, permissions);\n    }\n\n    /**\n     * @dev See {IERC721CreatorCore-mintBase}.\n     */\n    function mintBase(address to) public virtual override nonReentrant adminRequired returns(uint256) {\n        return _mintBase(to, \"\");\n    }\n\n    /**\n     * @dev See {IERC721CreatorCore-mintBase}.\n     */\n    function mintBase(address to, string calldata uri) public virtual override nonReentrant adminRequired returns(uint256) {\n        return _mintBase(to, uri);\n    }\n\n    /**\n     * @dev See {IERC721CreatorCore-mintBaseBatch}.\n     */\n    function mintBaseBatch(address to, uint16 count) public virtual override nonReentrant adminRequired returns(uint256[] memory tokenIds) {\n        tokenIds = new uint256[](count);\n        for (uint16 i = 0; i < count; i++) {\n            tokenIds[i] = _mintBase(to, \"\");\n        }\n        return tokenIds;\n    }\n\n    /**\n     * @dev See {IERC721CreatorCore-mintBaseBatch}.\n     */\n    function mintBaseBatch(address to, string[] calldata uris) public virtual override nonReentrant adminRequired returns(uint256[] memory tokenIds) {\n        tokenIds = new uint256[](uris.length);\n        for (uint i = 0; i < uris.length; i++) {\n            tokenIds[i] = _mintBase(to, uris[i]);\n        }\n        return tokenIds;\n    }\n\n    /**\n     * @dev Mint token with no extension\n     */\n    function _mintBase(address to, string memory uri) internal virtual returns(uint256 tokenId) {\n        _tokenCount++;\n        tokenId = _tokenCount;\n\n        // Track the extension that minted the token\n        _tokensExtension[tokenId] = address(this);\n\n        _safeMint(to, tokenId);\n\n        if (bytes(uri).length > 0) {\n            _tokenURIs[tokenId] = uri;\n        }\n\n        // Call post mint\n        _postMintBase(to, tokenId);\n        return tokenId;\n    }\n\n\n    /**\n     * @dev See {IERC721CreatorCore-mintExtension}.\n     */\n    function mintExtension(address to) public virtual override nonReentrant extensionRequired returns(uint256) {\n        return _mintExtension(to, \"\");\n    }\n\n    /**\n     * @dev See {IERC721CreatorCore-mintExtension}.\n     */\n    function mintExtension(address to, string calldata uri) public virtual override nonReentrant extensionRequired returns(uint256) {\n        return _mintExtension(to, uri);\n    }\n\n    /**\n     * @dev See {IERC721CreatorCore-mintExtensionBatch}.\n     */\n    function mintExtensionBatch(address to, uint16 count) public virtual override nonReentrant extensionRequired returns(uint256[] memory tokenIds) {\n        tokenIds = new uint256[](count);\n        for (uint16 i = 0; i < count; i++) {\n            tokenIds[i] = _mintExtension(to, \"\");\n        }\n        return tokenIds;\n    }\n\n    /**\n     * @dev See {IERC721CreatorCore-mintExtensionBatch}.\n     */\n    function mintExtensionBatch(address to, string[] calldata uris) public virtual override nonReentrant extensionRequired returns(uint256[] memory tokenIds) {\n        tokenIds = new uint256[](uris.length);\n        for (uint i = 0; i < uris.length; i++) {\n            tokenIds[i] = _mintExtension(to, uris[i]);\n        }\n    }\n    \n    /**\n     * @dev Mint token via extension\n     */\n    function _mintExtension(address to, string memory uri) internal virtual returns(uint256 tokenId) {\n        _tokenCount++;\n        tokenId = _tokenCount;\n\n        _checkMintPermissions(to, tokenId);\n\n        // Track the extension that minted the token\n        _tokensExtension[tokenId] = msg.sender;\n\n        _safeMint(to, tokenId);\n\n        if (bytes(uri).length > 0) {\n            _tokenURIs[tokenId] = uri;\n        }\n        \n        // Call post mint\n        _postMintExtension(to, tokenId);\n        return tokenId;\n    }\n\n    /**\n     * @dev See {IERC721CreatorCore-tokenExtension}.\n     */\n    function tokenExtension(uint256 tokenId) public view virtual override returns (address) {\n        require(_exists(tokenId), \"Nonexistent token\");\n        return _tokenExtension(tokenId);\n    }\n\n    /**\n     * @dev See {IERC721CreatorCore-burn}.\n     */\n    function burn(uint256 tokenId) public virtual override nonReentrant {\n        require(_isApprovedOrOwner(msg.sender, tokenId), \"Caller is not owner nor approved\");\n        address owner = ownerOf(tokenId);\n        _burn(tokenId);\n        _postBurn(owner, tokenId);\n    }\n\n    /**\n     * @dev See {ICreatorCore-setRoyalties}.\n     */\n    function setRoyalties(address payable[] calldata receivers, uint256[] calldata basisPoints) external override adminRequired {\n        _setRoyaltiesExtension(address(this), receivers, basisPoints);\n    }\n\n    /**\n     * @dev See {ICreatorCore-setRoyalties}.\n     */\n    function setRoyalties(uint256 tokenId, address payable[] calldata receivers, uint256[] calldata basisPoints) external override adminRequired {\n        require(_exists(tokenId), \"Nonexistent token\");\n        _setRoyalties(tokenId, receivers, basisPoints);\n    }\n\n    /**\n     * @dev See {ICreatorCore-setRoyaltiesExtension}.\n     */\n    function setRoyaltiesExtension(address extension, address payable[] calldata receivers, uint256[] calldata basisPoints) external override adminRequired {\n        _setRoyaltiesExtension(extension, receivers, basisPoints);\n    }\n\n    /**\n     * @dev {See ICreatorCore-getRoyalties}.\n     */\n    function getRoyalties(uint256 tokenId) external view virtual override returns (address payable[] memory, uint256[] memory) {\n        require(_exists(tokenId), \"Nonexistent token\");\n        return _getRoyalties(tokenId);\n    }\n\n    /**\n     * @dev {See ICreatorCore-getFees}.\n     */\n    function getFees(uint256 tokenId) external view virtual override returns (address payable[] memory, uint256[] memory) {\n        require(_exists(tokenId), \"Nonexistent token\");\n        return _getRoyalties(tokenId);\n    }\n\n    /**\n     * @dev {See ICreatorCore-getFeeRecipients}.\n     */\n    function getFeeRecipients(uint256 tokenId) external view virtual override returns (address payable[] memory) {\n        require(_exists(tokenId), \"Nonexistent token\");\n        return _getRoyaltyReceivers(tokenId);\n    }\n\n    /**\n     * @dev {See ICreatorCore-getFeeBps}.\n     */\n    function getFeeBps(uint256 tokenId) external view virtual override returns (uint[] memory) {\n        require(_exists(tokenId), \"Nonexistent token\");\n        return _getRoyaltyBPS(tokenId);\n    }\n    \n    /**\n     * @dev {See ICreatorCore-royaltyInfo}.\n     */\n    function royaltyInfo(uint256 tokenId, uint256 value) external view virtual override returns (address, uint256) {\n        require(_exists(tokenId), \"Nonexistent token\");\n        return _getRoyaltyInfo(tokenId, value);\n    } \n\n    /**\n     * @dev See {IERC721Metadata-tokenURI}.\n     */\n    function tokenURI(uint256 tokenId) public view virtual override returns (string memory) {\n        require(_exists(tokenId), \"Nonexistent token\");\n        return _tokenURI(tokenId);\n    }\n    \n}",
  "sourcePath": "/Users/shuning/code/nft_creator/contracts/ERC721CreatorImplementation.sol",
  "compiler": {
    "name": "solc",
    "version": "0.8.4+commit.c7e474f2.Emscripten.clang"
  },
  "schemaVersion": "3.4.7",
  "updatedAt": "2022-06-11T11:26:51.162Z",
  "networkType": "ethereum",
  "devdoc": {
    "details": "ERC721Creator implementation",
    "kind": "dev",
    "methods": {
      "approve(address,uint256)": {
        "details": "See {IERC721-approve}."
      },
      "approveAdmin(address)": {
        "details": "See {IAdminControl-approveAdmin}."
      },
      "balanceOf(address)": {
        "details": "See {IERC721-balanceOf}."
      },
      "blacklistExtension(address)": {
        "details": "See {ICreatorCore-blacklistExtension}."
      },
      "burn(uint256)": {
        "details": "See {IERC721CreatorCore-burn}."
      },
      "getAdmins()": {
        "details": "See {IAdminControl-getAdmins}."
      },
      "getApproved(uint256)": {
        "details": "See {IERC721-getApproved}."
      },
      "getExtensions()": {
        "details": "See {ICreatorCore-getExtensions}."
      },
      "getFeeBps(uint256)": {
        "details": "{See ICreatorCore-getFeeBps}."
      },
      "getFeeRecipients(uint256)": {
        "details": "{See ICreatorCore-getFeeRecipients}."
      },
      "getFees(uint256)": {
        "details": "{See ICreatorCore-getFees}."
      },
      "getRoyalties(uint256)": {
        "details": "{See ICreatorCore-getRoyalties}."
      },
      "isAdmin(address)": {
        "details": "See {IAdminControl-isAdmin}."
      },
      "isApprovedForAll(address,address)": {
        "details": "See {IERC721-isApprovedForAll}."
      },
      "mintBase(address)": {
        "details": "See {IERC721CreatorCore-mintBase}."
      },
      "mintBase(address,string)": {
        "details": "See {IERC721CreatorCore-mintBase}."
      },
      "mintBaseBatch(address,string[])": {
        "details": "See {IERC721CreatorCore-mintBaseBatch}."
      },
      "mintBaseBatch(address,uint16)": {
        "details": "See {IERC721CreatorCore-mintBaseBatch}."
      },
      "mintExtension(address)": {
        "details": "See {IERC721CreatorCore-mintExtension}."
      },
      "mintExtension(address,string)": {
        "details": "See {IERC721CreatorCore-mintExtension}."
      },
      "mintExtensionBatch(address,string[])": {
        "details": "See {IERC721CreatorCore-mintExtensionBatch}."
      },
      "mintExtensionBatch(address,uint16)": {
        "details": "See {IERC721CreatorCore-mintExtensionBatch}."
      },
      "name()": {
        "details": "See {IERC721Metadata-name}."
      },
      "owner()": {
        "details": "Returns the address of the current owner."
      },
      "ownerOf(uint256)": {
        "details": "See {IERC721-ownerOf}."
      },
      "registerExtension(address,string)": {
        "details": "See {ICreatorCore-registerExtension}."
      },
      "registerExtension(address,string,bool)": {
        "details": "See {ICreatorCore-registerExtension}."
      },
      "renounceOwnership()": {
        "details": "Leaves the contract without owner. It will not be possible to call `onlyOwner` functions anymore. Can only be called by the current owner. NOTE: Renouncing ownership will leave the contract without an owner, thereby removing any functionality that is only available to the owner."
      },
      "revokeAdmin(address)": {
        "details": "See {IAdminControl-revokeAdmin}."
      },
      "royaltyInfo(uint256,uint256)": {
        "details": "{See ICreatorCore-royaltyInfo}."
      },
      "safeTransferFrom(address,address,uint256)": {
        "details": "See {IERC721-safeTransferFrom}."
      },
      "safeTransferFrom(address,address,uint256,bytes)": {
        "details": "See {IERC721-safeTransferFrom}."
      },
      "setApprovalForAll(address,bool)": {
        "details": "See {IERC721-setApprovalForAll}."
      },
      "setApproveTransferExtension(bool)": {
        "details": "See {ICreatorCore-setApproveTransferExtension}."
      },
      "setBaseTokenURI(string)": {
        "details": "See {ICreatorCore-setBaseTokenURI}."
      },
      "setBaseTokenURIExtension(string)": {
        "details": "See {ICreatorCore-setBaseTokenURIExtension}."
      },
      "setBaseTokenURIExtension(string,bool)": {
        "details": "See {ICreatorCore-setBaseTokenURIExtension}."
      },
      "setMintPermissions(address,address)": {
        "details": "See {ICreatorCore-setMintPermissions}."
      },
      "setRoyalties(address[],uint256[])": {
        "details": "See {ICreatorCore-setRoyalties}."
      },
      "setRoyalties(uint256,address[],uint256[])": {
        "details": "See {ICreatorCore-setRoyalties}."
      },
      "setRoyaltiesExtension(address,address[],uint256[])": {
        "details": "See {ICreatorCore-setRoyaltiesExtension}."
      },
      "setTokenURI(uint256,string)": {
        "details": "See {ICreatorCore-setTokenURI}."
      },
      "setTokenURI(uint256[],string[])": {
        "details": "See {ICreatorCore-setTokenURI}."
      },
      "setTokenURIExtension(uint256,string)": {
        "details": "See {ICreatorCore-setTokenURIExtension}."
      },
      "setTokenURIExtension(uint256[],string[])": {
        "details": "See {ICreatorCore-setTokenURIExtension}."
      },
      "setTokenURIPrefix(string)": {
        "details": "See {ICreatorCore-setTokenURIPrefix}."
      },
      "setTokenURIPrefixExtension(string)": {
        "details": "See {ICreatorCore-setTokenURIPrefixExtension}."
      },
      "supportsInterface(bytes4)": {
        "details": "See {IERC165-supportsInterface}."
      },
      "symbol()": {
        "details": "See {IERC721Metadata-symbol}."
      },
      "tokenExtension(uint256)": {
        "details": "See {IERC721CreatorCore-tokenExtension}."
      },
      "tokenURI(uint256)": {
        "details": "See {IERC721Metadata-tokenURI}."
      },
      "transferFrom(address,address,uint256)": {
        "details": "See {IERC721-transferFrom}."
      },
      "transferOwnership(address)": {
        "details": "Transfers ownership of the contract to a new account (`newOwner`). Can only be called by the current owner."
      },
      "unregisterExtension(address)": {
        "details": "See {ICreatorCore-unregisterExtension}."
      }
    },
    "version": 1
  },
  "userdoc": {
    "kind": "user",
    "methods": {
      "initialize(string,string)": {
        "notice": "Initializer"
      }
    },
    "version": 1
  }
}